{
  "_format": "hh-sol-artifact-1",
  "contractName": "BigBrotherVoting",
  "sourceName": "contracts/BigBrotherVoting.sol",
  "abi": [
    {
      "inputs": [],
      "stateMutability": "nonpayable",
      "type": "constructor"
    },
    {
      "anonymous": false,
      "inputs": [
        {
          "indexed": false,
          "internalType": "string",
          "name": "name",
          "type": "string"
        },
        {
          "indexed": false,
          "internalType": "uint256",
          "name": "newLikes",
          "type": "uint256"
        }
      ],
      "name": "ContestantLiked",
      "type": "event"
    },
    {
      "inputs": [
        {
          "internalType": "uint256",
          "name": "",
          "type": "uint256"
        }
      ],
      "name": "contestants",
      "outputs": [
        {
          "internalType": "string",
          "name": "name",
          "type": "string"
        },
        {
          "internalType": "uint256",
          "name": "likes",
          "type": "uint256"
        }
      ],
      "stateMutability": "view",
      "type": "function"
    },
    {
      "inputs": [],
      "name": "getContestants",
      "outputs": [
        {
          "components": [
            {
              "internalType": "string",
              "name": "name",
              "type": "string"
            },
            {
              "internalType": "uint256",
              "name": "likes",
              "type": "uint256"
            }
          ],
          "internalType": "struct BigBrotherVoting.Contestant[]",
          "name": "",
          "type": "tuple[]"
        }
      ],
      "stateMutability": "view",
      "type": "function"
    },
    {
      "inputs": [
        {
          "internalType": "address",
          "name": "user",
          "type": "address"
        }
      ],
      "name": "hasUserVoted",
      "outputs": [
        {
          "internalType": "bool",
          "name": "",
          "type": "bool"
        }
      ],
      "stateMutability": "view",
      "type": "function"
    },
    {
      "inputs": [
        {
          "internalType": "address",
          "name": "",
          "type": "address"
        }
      ],
      "name": "hasVoted",
      "outputs": [
        {
          "internalType": "bool",
          "name": "",
          "type": "bool"
        }
      ],
      "stateMutability": "view",
      "type": "function"
    },
    {
      "inputs": [
        {
          "internalType": "uint256",
          "name": "contestantId",
          "type": "uint256"
        }
      ],
      "name": "likeContestant",
      "outputs": [],
      "stateMutability": "nonpayable",
      "type": "function"
    },
    {
      "inputs": [],
      "name": "owner",
      "outputs": [
        {
          "internalType": "address",
          "name": "",
          "type": "address"
        }
      ],
      "stateMutability": "view",
      "type": "function"
    }
  ],
  "bytecode": "0x60806040523480156200001157600080fd5b50336000806101000a81548173ffffffffffffffffffffffffffffffffffffffff021916908373ffffffffffffffffffffffffffffffffffffffff160217905550600160405180604001604052806040518060400160405280600581526020017f4679616e670000000000000000000000000000000000000000000000000000008152508152602001600081525090806001815401808255809150506001900390600052602060002090600202016000909190919091506000820151816000019080519060200190620000e69291906200023b565b50602082015181600101555050600160405180604001604052806040518060400160405280600681526020017f416c7973736100000000000000000000000000000000000000000000000000008152508152602001600081525090806001815401808255809150506001900390600052602060002090600202016000909190919091506000820151816000019080519060200190620001879291906200023b565b50602082015181600101555050600160405180604001604052806040518060400160405280600c81526020017f486f6e67204c616f2053686900000000000000000000000000000000000000008152508152602001600081525090806001815401808255809150506001900390600052602060002090600202016000909190919091506000820151816000019080519060200190620002289291906200023b565b5060208201518160010155505062000350565b82805462000249906200031a565b90600052602060002090601f0160209004810192826200026d5760008555620002b9565b82601f106200028857805160ff1916838001178555620002b9565b82800160010185558215620002b9579182015b82811115620002b85782518255916020019190600101906200029b565b5b509050620002c89190620002cc565b5090565b5b80821115620002e7576000816000905550600101620002cd565b5090565b7f4e487b7100000000000000000000000000000000000000000000000000000000600052602260045260246000fd5b600060028204905060018216806200033357607f821691505b602082108114156200034a5762000349620002eb565b5b50919050565b610c6f80620003606000396000f3fe608060405234801561001057600080fd5b50600436106100625760003560e01c806309eef43e146100675780637fabe80a146100975780638da5cb5b146100c7578063c10196fa146100e5578063dfd50f5214610103578063fb393d8b14610134575b600080fd5b610081600480360381019061007c9190610645565b610150565b60405161008e919061068d565b60405180910390f35b6100b160048036038101906100ac9190610645565b610170565b6040516100be919061068d565b60405180910390f35b6100cf6101c6565b6040516100dc91906106b7565b60405180910390f35b6100ed6101ea565b6040516100fa9190610883565b60405180910390f35b61011d600480360381019061011891906108d1565b6102e5565b60405161012b929190610957565b60405180910390f35b61014e600480360381019061014991906108d1565b6103a1565b005b60026020528060005260406000206000915054906101000a900460ff1681565b6000600260008373ffffffffffffffffffffffffffffffffffffffff1673ffffffffffffffffffffffffffffffffffffffff16815260200190815260200160002060009054906101000a900460ff169050919050565b60008054906101000a900473ffffffffffffffffffffffffffffffffffffffff1681565b60606001805480602002602001604051908101604052809291908181526020016000905b828210156102dc5783829060005260206000209060020201604051806040016040529081600082018054610241906109b6565b80601f016020809104026020016040519081016040528092919081815260200182805461026d906109b6565b80156102ba5780601f1061028f576101008083540402835291602001916102ba565b820191906000526020600020905b81548152906001019060200180831161029d57829003601f168201915b505050505081526020016001820154815250508152602001906001019061020e565b50505050905090565b600181815481106102f557600080fd5b9060005260206000209060020201600091509050806000018054610318906109b6565b80601f0160208091040260200160405190810160405280929190818152602001828054610344906109b6565b80156103915780601f1061036657610100808354040283529160200191610391565b820191906000526020600020905b81548152906001019060200180831161037457829003601f168201915b5050505050908060010154905082565b60018054905081106103e8576040517f08c379a00000000000000000000000000000000000000000000000000000000081526004016103df90610a34565b60405180910390fd5b60008054906101000a900473ffffffffffffffffffffffffffffffffffffffff1673ffffffffffffffffffffffffffffffffffffffff163373ffffffffffffffffffffffffffffffffffffffff161461052157600260003373ffffffffffffffffffffffffffffffffffffffff1673ffffffffffffffffffffffffffffffffffffffff16815260200190815260200160002060009054906101000a900460ff16156104c8576040517f08c379a00000000000000000000000000000000000000000000000000000000081526004016104bf90610aa0565b60405180910390fd5b6001600260003373ffffffffffffffffffffffffffffffffffffffff1673ffffffffffffffffffffffffffffffffffffffff16815260200190815260200160002060006101000a81548160ff0219169083151502179055505b600180828154811061053657610535610ac0565b5b906000526020600020906002020160010160008282546105569190610b1e565b925050819055507fae7d1890434901729568213f247841d5e137ce0eec639f84eefd9e8734b7762b6001828154811061059257610591610ac0565b5b9060005260206000209060020201600001600183815481106105b7576105b6610ac0565b5b9060005260206000209060020201600101546040516105d7929190610c09565b60405180910390a150565b600080fd5b600073ffffffffffffffffffffffffffffffffffffffff82169050919050565b6000610612826105e7565b9050919050565b61062281610607565b811461062d57600080fd5b50565b60008135905061063f81610619565b92915050565b60006020828403121561065b5761065a6105e2565b5b600061066984828501610630565b91505092915050565b60008115159050919050565b61068781610672565b82525050565b60006020820190506106a2600083018461067e565b92915050565b6106b181610607565b82525050565b60006020820190506106cc60008301846106a8565b92915050565b600081519050919050565b600082825260208201905092915050565b6000819050602082019050919050565b600081519050919050565b600082825260208201905092915050565b60005b8381101561073857808201518184015260208101905061071d565b83811115610747576000848401525b50505050565b6000601f19601f8301169050919050565b6000610769826106fe565b6107738185610709565b935061078381856020860161071a565b61078c8161074d565b840191505092915050565b6000819050919050565b6107aa81610797565b82525050565b600060408301600083015184820360008601526107cd828261075e565b91505060208301516107e260208601826107a1565b508091505092915050565b60006107f983836107b0565b905092915050565b6000602082019050919050565b6000610819826106d2565b61082381856106dd565b935083602082028501610835856106ee565b8060005b85811015610871578484038952815161085285826107ed565b945061085d83610801565b925060208a01995050600181019050610839565b50829750879550505050505092915050565b6000602082019050818103600083015261089d818461080e565b905092915050565b6108ae81610797565b81146108b957600080fd5b50565b6000813590506108cb816108a5565b92915050565b6000602082840312156108e7576108e66105e2565b5b60006108f5848285016108bc565b91505092915050565b600082825260208201905092915050565b600061091a826106fe565b61092481856108fe565b935061093481856020860161071a565b61093d8161074d565b840191505092915050565b61095181610797565b82525050565b60006040820190508181036000830152610971818561090f565b90506109806020830184610948565b9392505050565b7f4e487b7100000000000000000000000000000000000000000000000000000000600052602260045260246000fd5b600060028204905060018216806109ce57607f821691505b602082108114156109e2576109e1610987565b5b50919050565b7f496e76616c696420636f6e74657374616e742049440000000000000000000000600082015250565b6000610a1e6015836108fe565b9150610a29826109e8565b602082019050919050565b60006020820190508181036000830152610a4d81610a11565b9050919050565b7f596f752063616e206f6e6c7920766f7465206f6e636500000000000000000000600082015250565b6000610a8a6016836108fe565b9150610a9582610a54565b602082019050919050565b60006020820190508181036000830152610ab981610a7d565b9050919050565b7f4e487b7100000000000000000000000000000000000000000000000000000000600052603260045260246000fd5b7f4e487b7100000000000000000000000000000000000000000000000000000000600052601160045260246000fd5b6000610b2982610797565b9150610b3483610797565b9250827fffffffffffffffffffffffffffffffffffffffffffffffffffffffffffffffff03821115610b6957610b68610aef565b5b828201905092915050565b60008190508160005260206000209050919050565b60008154610b96816109b6565b610ba081866108fe565b94506001821660008114610bbb5760018114610bcd57610c00565b60ff1983168652602086019350610c00565b610bd685610b74565b60005b83811015610bf857815481890152600182019150602081019050610bd9565b808801955050505b50505092915050565b60006040820190508181036000830152610c238185610b89565b9050610c326020830184610948565b939250505056fea264697066735822122025e0addc6f51d0d2f5a1f31c3bcb09665c174b110fa0590dcb0594fc0c5ad48e64736f6c63430008090033",
  "linkReferences": {},
  "deployedLinkReferences": {}
}